{
  "_format": "hh-sol-artifact-1",
  "contractName": "MedicalInfo",
  "sourceName": "contracts/MedicalInfo.sol",
  "abi": [
    {
      "inputs": [],
      "stateMutability": "nonpayable",
      "type": "constructor"
    },
    {
      "anonymous": false,
      "inputs": [
        {
          "indexed": true,
          "internalType": "address",
          "name": "from",
          "type": "address"
        },
        {
          "indexed": false,
          "internalType": "uint256",
          "name": "timestamp",
          "type": "uint256"
        },
        {
          "indexed": false,
          "internalType": "string",
          "name": "name",
          "type": "string"
        },
        {
          "indexed": false,
          "internalType": "string",
          "name": "blood",
          "type": "string"
        }
      ],
      "name": "NewData",
      "type": "event"
    },
    {
      "anonymous": false,
      "inputs": [
        {
          "indexed": true,
          "internalType": "address",
          "name": "from",
          "type": "address"
        },
        {
          "indexed": false,
          "internalType": "uint256",
          "name": "timestamp",
          "type": "uint256"
        },
        {
          "indexed": false,
          "internalType": "string",
          "name": "name",
          "type": "string"
        },
        {
          "indexed": false,
          "internalType": "string",
          "name": "blood",
          "type": "string"
        }
      ],
      "name": "updateData",
      "type": "event"
    },
    {
      "inputs": [
        {
          "internalType": "string",
          "name": "_name",
          "type": "string"
        },
        {
          "internalType": "string",
          "name": "_blood",
          "type": "string"
        }
      ],
      "name": "checkMyData",
      "outputs": [],
      "stateMutability": "nonpayable",
      "type": "function"
    },
    {
      "inputs": [],
      "name": "getAllDatas",
      "outputs": [
        {
          "components": [
            {
              "internalType": "address",
              "name": "patient",
              "type": "address"
            },
            {
              "internalType": "string",
              "name": "name",
              "type": "string"
            },
            {
              "internalType": "string",
              "name": "blood",
              "type": "string"
            },
            {
              "internalType": "uint256",
              "name": "timestamp",
              "type": "uint256"
            }
          ],
          "internalType": "struct MedicalInfo.mdData[]",
          "name": "",
          "type": "tuple[]"
        }
      ],
      "stateMutability": "view",
      "type": "function"
    },
    {
      "inputs": [],
      "name": "myDataIndex",
      "outputs": [
        {
          "internalType": "uint256[]",
          "name": "",
          "type": "uint256[]"
        }
      ],
      "stateMutability": "view",
      "type": "function"
    }
  ],
  "bytecode": "0x608060405234801561001057600080fd5b50610ffe806100206000396000f3fe608060405234801561001057600080fd5b50600436106100415760003560e01c80634823f58e146100465780638eb20fd014610064578063b06f8c2714610082575b600080fd5b61004e61009e565b60405161005b9190610a2c565b60405180910390f35b61006c610133565b6040516100799190610c54565b60405180910390f35b61009c60048036038101906100979190610dbf565b610316565b005b60606000600160003373ffffffffffffffffffffffffffffffffffffffff1673ffffffffffffffffffffffffffffffffffffffff1681526020019081526020016000205467ffffffffffffffff8111156100fb576100fa610c94565b5b6040519080825280602002602001820160405280156101295781602001602082028036833780820191505090505b5090508091505090565b60606000805480602002602001604051908101604052809291908181526020016000905b8282101561030d57838290600052602060002090600402016040518060800160405290816000820160009054906101000a900473ffffffffffffffffffffffffffffffffffffffff1673ffffffffffffffffffffffffffffffffffffffff1673ffffffffffffffffffffffffffffffffffffffff1681526020016001820180546101e090610e66565b80601f016020809104026020016040519081016040528092919081815260200182805461020c90610e66565b80156102595780601f1061022e57610100808354040283529160200191610259565b820191906000526020600020905b81548152906001019060200180831161023c57829003601f168201915b5050505050815260200160028201805461027290610e66565b80601f016020809104026020016040519081016040528092919081815260200182805461029e90610e66565b80156102eb5780601f106102c0576101008083540402835291602001916102eb565b820191906000526020600020905b8154815290600101906020018083116102ce57829003601f168201915b5050505050815260200160038201548152505081526020019060010190610157565b50505050905090565b6000600160003373ffffffffffffffffffffffffffffffffffffffff1673ffffffffffffffffffffffffffffffffffffffff16815260200190815260200160002054141561036d57610368828261037c565b610378565b610377828261050a565b5b5050565b600060405180608001604052803373ffffffffffffffffffffffffffffffffffffffff16815260200184815260200183815260200142815250908060018154018082558091505060019003906000526020600020906004020160009091909190915060008201518160000160006101000a81548173ffffffffffffffffffffffffffffffffffffffff021916908373ffffffffffffffffffffffffffffffffffffffff1602179055506020820151816001019080519060200190610441929190610883565b50604082015181600201908051906020019061045e929190610883565b50606082015181600301555050600080549050600160003373ffffffffffffffffffffffffffffffffffffffff1673ffffffffffffffffffffffffffffffffffffffff168152602001908152602001600020819055503373ffffffffffffffffffffffffffffffffffffffff167febe3977068261d3c4f9a8f3855e034a02d918988894cd6e3df018c1cf79bc3564284846040516104fe93929190610ef1565b60405180910390a25050565b6000610514610675565b90503373ffffffffffffffffffffffffffffffffffffffff16816000015173ffffffffffffffffffffffffffffffffffffffff161461055257600080fd5b600061055c61009e565b905060008160008151811061057457610573610f36565b5b60200260200101519050846000828154811061059357610592610f36565b5b906000526020600020906004020160010190805190602001906105b7929190610883565b5083600082815481106105cd576105cc610f36565b5b906000526020600020906004020160020190805190602001906105f1929190610883565b50426000828154811061060757610606610f36565b5b9060005260206000209060040201600301819055503373ffffffffffffffffffffffffffffffffffffffff167f2e0ad14fed9b932f67d32c9f1fb219406122df7f34387f4f08cd7d523aaa66bb42878760405161066693929190610ef1565b60405180910390a25050505050565b61067d610909565b600060018060003373ffffffffffffffffffffffffffffffffffffffff1673ffffffffffffffffffffffffffffffffffffffff168152602001908152602001600020546106ca9190610f94565b9050600081815481106106e0576106df610f36565b5b90600052602060002090600402016040518060800160405290816000820160009054906101000a900473ffffffffffffffffffffffffffffffffffffffff1673ffffffffffffffffffffffffffffffffffffffff1673ffffffffffffffffffffffffffffffffffffffff16815260200160018201805461075f90610e66565b80601f016020809104026020016040519081016040528092919081815260200182805461078b90610e66565b80156107d85780601f106107ad576101008083540402835291602001916107d8565b820191906000526020600020905b8154815290600101906020018083116107bb57829003601f168201915b505050505081526020016002820180546107f190610e66565b80601f016020809104026020016040519081016040528092919081815260200182805461081d90610e66565b801561086a5780601f1061083f5761010080835404028352916020019161086a565b820191906000526020600020905b81548152906001019060200180831161084d57829003601f168201915b5050505050815260200160038201548152505091505090565b82805461088f90610e66565b90600052602060002090601f0160209004810192826108b157600085556108f8565b82601f106108ca57805160ff19168380011785556108f8565b828001600101855582156108f8579182015b828111156108f75782518255916020019190600101906108dc565b5b5090506109059190610947565b5090565b6040518060800160405280600073ffffffffffffffffffffffffffffffffffffffff1681526020016060815260200160608152602001600081525090565b5b80821115610960576000816000905550600101610948565b5090565b600081519050919050565b600082825260208201905092915050565b6000819050602082019050919050565b6000819050919050565b6109a381610990565b82525050565b60006109b5838361099a565b60208301905092915050565b6000602082019050919050565b60006109d982610964565b6109e3818561096f565b93506109ee83610980565b8060005b83811015610a1f578151610a0688826109a9565b9750610a11836109c1565b9250506001810190506109f2565b5085935050505092915050565b60006020820190508181036000830152610a4681846109ce565b905092915050565b600081519050919050565b600082825260208201905092915050565b6000819050602082019050919050565b600073ffffffffffffffffffffffffffffffffffffffff82169050919050565b6000610aa582610a7a565b9050919050565b610ab581610a9a565b82525050565b600081519050919050565b600082825260208201905092915050565b60005b83811015610af5578082015181840152602081019050610ada565b83811115610b04576000848401525b50505050565b6000601f19601f8301169050919050565b6000610b2682610abb565b610b308185610ac6565b9350610b40818560208601610ad7565b610b4981610b0a565b840191505092915050565b6000608083016000830151610b6c6000860182610aac565b5060208301518482036020860152610b848282610b1b565b91505060408301518482036040860152610b9e8282610b1b565b9150506060830151610bb3606086018261099a565b508091505092915050565b6000610bca8383610b54565b905092915050565b6000602082019050919050565b6000610bea82610a4e565b610bf48185610a59565b935083602082028501610c0685610a6a565b8060005b85811015610c425784840389528151610c238582610bbe565b9450610c2e83610bd2565b925060208a01995050600181019050610c0a565b50829750879550505050505092915050565b60006020820190508181036000830152610c6e8184610bdf565b905092915050565b6000604051905090565b600080fd5b600080fd5b600080fd5b600080fd5b7f4e487b7100000000000000000000000000000000000000000000000000000000600052604160045260246000fd5b610ccc82610b0a565b810181811067ffffffffffffffff82111715610ceb57610cea610c94565b5b80604052505050565b6000610cfe610c76565b9050610d0a8282610cc3565b919050565b600067ffffffffffffffff821115610d2a57610d29610c94565b5b610d3382610b0a565b9050602081019050919050565b82818337600083830152505050565b6000610d62610d5d84610d0f565b610cf4565b905082815260208101848484011115610d7e57610d7d610c8f565b5b610d89848285610d40565b509392505050565b600082601f830112610da657610da5610c8a565b5b8135610db6848260208601610d4f565b91505092915050565b60008060408385031215610dd657610dd5610c80565b5b600083013567ffffffffffffffff811115610df457610df3610c85565b5b610e0085828601610d91565b925050602083013567ffffffffffffffff811115610e2157610e20610c85565b5b610e2d85828601610d91565b9150509250929050565b7f4e487b7100000000000000000000000000000000000000000000000000000000600052602260045260246000fd5b60006002820490506001821680610e7e57607f821691505b60208210811415610e9257610e91610e37565b5b50919050565b610ea181610990565b82525050565b600082825260208201905092915050565b6000610ec382610abb565b610ecd8185610ea7565b9350610edd818560208601610ad7565b610ee681610b0a565b840191505092915050565b6000606082019050610f066000830186610e98565b8181036020830152610f188185610eb8565b90508181036040830152610f2c8184610eb8565b9050949350505050565b7f4e487b7100000000000000000000000000000000000000000000000000000000600052603260045260246000fd5b7f4e487b7100000000000000000000000000000000000000000000000000000000600052601160045260246000fd5b6000610f9f82610990565b9150610faa83610990565b925082821015610fbd57610fbc610f65565b5b82820390509291505056fea2646970667358221220e62c2cf40d8aadf6036f94d76c98300fb879adae83bceb7a100b9e1cb471929164736f6c63430008090033",
  "linkReferences": {},
  "deployedLinkReferences": {}
}